{
  "contractName": "Bank",
  "abi": [
    {
      "inputs": [],
      "payable": false,
      "stateMutability": "nonpayable",
      "type": "constructor"
    },
    {
      "anonymous": false,
      "inputs": [
        {
          "indexed": true,
          "internalType": "address",
          "name": "my_val",
          "type": "address"
        }
      ],
      "name": "Debug",
      "type": "event"
    },
    {
      "constant": true,
      "inputs": [],
      "name": "ac",
      "outputs": [
        {
          "internalType": "address",
          "name": "",
          "type": "address"
        }
      ],
      "payable": false,
      "stateMutability": "view",
      "type": "function"
    },
    {
      "constant": true,
      "inputs": [
        {
          "internalType": "address",
          "name": "",
          "type": "address"
        },
        {
          "internalType": "uint256",
          "name": "",
          "type": "uint256"
        }
      ],
      "name": "lendMap",
      "outputs": [
        {
          "internalType": "uint256",
          "name": "",
          "type": "uint256"
        }
      ],
      "payable": false,
      "stateMutability": "view",
      "type": "function"
    },
    {
      "constant": true,
      "inputs": [
        {
          "internalType": "uint256",
          "name": "",
          "type": "uint256"
        }
      ],
      "name": "loanList",
      "outputs": [
        {
          "internalType": "address",
          "name": "borrower",
          "type": "address"
        },
        {
          "internalType": "enum Bank.LoanState",
          "name": "state",
          "type": "uint8"
        },
        {
          "internalType": "uint256",
          "name": "dueDate",
          "type": "uint256"
        },
        {
          "internalType": "uint256",
          "name": "amount",
          "type": "uint256"
        },
        {
          "internalType": "uint256",
          "name": "proposalCount",
          "type": "uint256"
        },
        {
          "internalType": "uint256",
          "name": "collected",
          "type": "uint256"
        },
        {
          "internalType": "uint256",
          "name": "startDate",
          "type": "uint256"
        },
        {
          "internalType": "string",
          "name": "mortgage",
          "type": "string"
        }
      ],
      "payable": false,
      "stateMutability": "view",
      "type": "function"
    },
    {
      "constant": true,
      "inputs": [
        {
          "internalType": "address",
          "name": "",
          "type": "address"
        },
        {
          "internalType": "uint256",
          "name": "",
          "type": "uint256"
        }
      ],
      "name": "loanMap",
      "outputs": [
        {
          "internalType": "uint256",
          "name": "",
          "type": "uint256"
        }
      ],
      "payable": false,
      "stateMutability": "view",
      "type": "function"
    },
    {
      "constant": true,
      "inputs": [],
      "name": "owner",
      "outputs": [
        {
          "internalType": "address",
          "name": "",
          "type": "address"
        }
      ],
      "payable": false,
      "stateMutability": "view",
      "type": "function"
    },
    {
      "constant": true,
      "inputs": [
        {
          "internalType": "uint256",
          "name": "",
          "type": "uint256"
        }
      ],
      "name": "proposalList",
      "outputs": [
        {
          "internalType": "address payable",
          "name": "lender",
          "type": "address"
        },
        {
          "internalType": "uint256",
          "name": "loanId",
          "type": "uint256"
        },
        {
          "internalType": "enum Bank.ProposalState",
          "name": "state",
          "type": "uint8"
        },
        {
          "internalType": "uint256",
          "name": "rate",
          "type": "uint256"
        },
        {
          "internalType": "uint256",
          "name": "amount",
          "type": "uint256"
        }
      ],
      "payable": false,
      "stateMutability": "view",
      "type": "function"
    },
    {
      "constant": false,
      "inputs": [
        {
          "internalType": "address",
          "name": "_t",
          "type": "address"
        }
      ],
      "name": "setAssetContract",
      "outputs": [],
      "payable": false,
      "stateMutability": "nonpayable",
      "type": "function"
    },
    {
      "constant": true,
      "inputs": [],
      "name": "getAssetContractAddress",
      "outputs": [
        {
          "internalType": "address",
          "name": "",
          "type": "address"
        }
      ],
      "payable": false,
      "stateMutability": "view",
      "type": "function"
    },
    {
      "constant": true,
      "inputs": [
        {
          "internalType": "address",
          "name": "borrower",
          "type": "address"
        }
      ],
      "name": "hasActiveLoan",
      "outputs": [
        {
          "internalType": "bool",
          "name": "",
          "type": "bool"
        }
      ],
      "payable": false,
      "stateMutability": "view",
      "type": "function"
    },
    {
      "constant": false,
      "inputs": [
        {
          "internalType": "uint256",
          "name": "amount",
          "type": "uint256"
        },
        {
          "internalType": "uint256",
          "name": "dueDate",
          "type": "uint256"
        },
        {
          "internalType": "string",
          "name": "mortgage",
          "type": "string"
        },
        {
          "internalType": "uint256",
          "name": "_tokenId",
          "type": "uint256"
        }
      ],
      "name": "newLoan",
      "outputs": [],
      "payable": false,
      "stateMutability": "nonpayable",
      "type": "function"
    },
    {
      "constant": false,
      "inputs": [
        {
          "internalType": "uint256",
          "name": "loanId",
          "type": "uint256"
        },
        {
          "internalType": "uint256",
          "name": "rate",
          "type": "uint256"
        }
      ],
      "name": "newProposal",
      "outputs": [],
      "payable": true,
      "stateMutability": "payable",
      "type": "function"
    },
    {
      "constant": true,
      "inputs": [
        {
          "internalType": "address",
          "name": "borrower",
          "type": "address"
        }
      ],
      "name": "getActiveLoanId",
      "outputs": [
        {
          "internalType": "uint256",
          "name": "",
          "type": "uint256"
        }
      ],
      "payable": false,
      "stateMutability": "view",
      "type": "function"
    },
    {
      "constant": true,
      "inputs": [
        {
          "internalType": "string",
          "name": "a",
          "type": "string"
        },
        {
          "internalType": "string",
          "name": "b",
          "type": "string"
        }
      ],
      "name": "compareStrings",
      "outputs": [
        {
          "internalType": "bool",
          "name": "",
          "type": "bool"
        }
      ],
      "payable": false,
      "stateMutability": "view",
      "type": "function"
    },
    {
      "constant": false,
      "inputs": [
        {
          "internalType": "uint256",
          "name": "id",
          "type": "uint256"
        }
      ],
      "name": "revokeMyProposal",
      "outputs": [],
      "payable": false,
      "stateMutability": "nonpayable",
      "type": "function"
    },
    {
      "constant": false,
      "inputs": [
        {
          "internalType": "uint256",
          "name": "loanId",
          "type": "uint256"
        }
      ],
      "name": "lockLoan",
      "outputs": [],
      "payable": false,
      "stateMutability": "nonpayable",
      "type": "function"
    },
    {
      "constant": true,
      "inputs": [
        {
          "internalType": "uint256",
          "name": "loanId",
          "type": "uint256"
        }
      ],
      "name": "getRepayValue",
      "outputs": [
        {
          "internalType": "uint256",
          "name": "",
          "type": "uint256"
        }
      ],
      "payable": false,
      "stateMutability": "view",
      "type": "function"
    },
    {
      "constant": false,
      "inputs": [
        {
          "internalType": "uint256",
          "name": "loanId",
          "type": "uint256"
        }
      ],
      "name": "repayLoan",
      "outputs": [],
      "payable": true,
      "stateMutability": "payable",
      "type": "function"
    },
    {
      "constant": false,
      "inputs": [
        {
          "internalType": "uint256",
          "name": "proposeId",
          "type": "uint256"
        }
      ],
      "name": "acceptProposal",
      "outputs": [],
      "payable": false,
      "stateMutability": "nonpayable",
      "type": "function"
    },
    {
      "constant": true,
      "inputs": [
        {
          "internalType": "address",
          "name": "lender",
          "type": "address"
        }
      ],
      "name": "totalProposalsBy",
      "outputs": [
        {
          "internalType": "uint256",
          "name": "",
          "type": "uint256"
        }
      ],
      "payable": false,
      "stateMutability": "view",
      "type": "function"
    },
    {
      "constant": true,
      "inputs": [
        {
          "internalType": "address",
          "name": "lender",
          "type": "address"
        },
        {
          "internalType": "uint256",
          "name": "pos",
          "type": "uint256"
        }
      ],
      "name": "getProposalAtPosFor",
      "outputs": [
        {
          "internalType": "address",
          "name": "",
          "type": "address"
        },
        {
          "internalType": "uint256",
          "name": "",
          "type": "uint256"
        },
        {
          "internalType": "enum Bank.ProposalState",
          "name": "",
          "type": "uint8"
        },
        {
          "internalType": "uint256",
          "name": "",
          "type": "uint256"
        },
        {
          "internalType": "uint256",
          "name": "",
          "type": "uint256"
        },
        {
          "internalType": "uint256",
          "name": "",
          "type": "uint256"
        },
        {
          "internalType": "uint256",
          "name": "",
          "type": "uint256"
        },
        {
          "internalType": "string",
          "name": "",
          "type": "string"
        }
      ],
      "payable": false,
      "stateMutability": "view",
      "type": "function"
    },
    {
      "constant": true,
      "inputs": [
        {
          "internalType": "address",
          "name": "borrower",
          "type": "address"
        }
      ],
      "name": "totalLoansBy",
      "outputs": [
        {
          "internalType": "uint256",
          "name": "",
          "type": "uint256"
        }
      ],
      "payable": false,
      "stateMutability": "view",
      "type": "function"
    },
    {
      "constant": true,
      "inputs": [
        {
          "internalType": "address",
          "name": "borrower",
          "type": "address"
        },
        {
          "internalType": "uint256",
          "name": "pos",
          "type": "uint256"
        }
      ],
      "name": "getLoanDetailsByAddressPosition",
      "outputs": [
        {
          "internalType": "enum Bank.LoanState",
          "name": "",
          "type": "uint8"
        },
        {
          "internalType": "uint256",
          "name": "",
          "type": "uint256"
        },
        {
          "internalType": "uint256",
          "name": "",
          "type": "uint256"
        },
        {
          "internalType": "uint256",
          "name": "",
          "type": "uint256"
        },
        {
          "internalType": "uint256",
          "name": "",
          "type": "uint256"
        },
        {
          "internalType": "string",
          "name": "",
          "type": "string"
        }
      ],
      "payable": false,
      "stateMutability": "view",
      "type": "function"
    },
    {
      "constant": true,
      "inputs": [
        {
          "internalType": "address",
          "name": "borrower",
          "type": "address"
        }
      ],
      "name": "getLastLoanState",
      "outputs": [
        {
          "internalType": "enum Bank.LoanState",
          "name": "",
          "type": "uint8"
        }
      ],
      "payable": false,
      "stateMutability": "view",
      "type": "function"
    },
    {
      "constant": true,
      "inputs": [
        {
          "internalType": "address",
          "name": "borrower",
          "type": "address"
        }
      ],
      "name": "getLastLoanDetails",
      "outputs": [
        {
          "internalType": "enum Bank.LoanState",
          "name": "",
          "type": "uint8"
        },
        {
          "internalType": "uint256",
          "name": "",
          "type": "uint256"
        },
        {
          "internalType": "uint256",
          "name": "",
          "type": "uint256"
        },
        {
          "internalType": "uint256",
          "name": "",
          "type": "uint256"
        },
        {
          "internalType": "uint256",
          "name": "",
          "type": "uint256"
        }
      ],
      "payable": false,
      "stateMutability": "view",
      "type": "function"
    },
    {
      "constant": true,
      "inputs": [
        {
          "internalType": "uint256",
          "name": "loanId",
          "type": "uint256"
        },
        {
          "internalType": "uint256",
          "name": "numI",
          "type": "uint256"
        }
      ],
      "name": "getProposalDetailsByLoanIdPosition",
      "outputs": [
        {
          "internalType": "enum Bank.ProposalState",
          "name": "",
          "type": "uint8"
        },
        {
          "internalType": "uint256",
          "name": "",
          "type": "uint256"
        },
        {
          "internalType": "uint256",
          "name": "",
          "type": "uint256"
        },
        {
          "internalType": "uint256",
          "name": "",
          "type": "uint256"
        },
        {
          "internalType": "address",
          "name": "",
          "type": "address"
        }
      ],
      "payable": false,
      "stateMutability": "view",
      "type": "function"
    },
    {
      "constant": true,
      "inputs": [],
      "name": "numTotalLoans",
      "outputs": [
        {
          "internalType": "uint256",
          "name": "",
          "type": "uint256"
        }
      ],
      "payable": false,
      "stateMutability": "view",
      "type": "function"
    }
  ],
  "bytecode": "0x608060405234801561001057600080fd5b50336000806101000a81548173ffffffffffffffffffffffffffffffffffffffff021916908373ffffffffffffffffffffffffffffffffffffffff160217905550613715806100606000396000f3fe6080604052600436106101815760003560e01c80638a190636116100d1578063ab7b1c891161008a578063bed34bba11610064578063bed34bba14610c09578063c6311e3f14610d80578063e24afbb614610e25578063faa72d6314610e8a57610181565b8063ab7b1c8914610b03578063ac51ba9614610b31578063bad9e65a14610b9657610181565b80638a190636146109175780638cad507d146109a65780638da5cb5b146109d15780639832565614610a285780639ce9cc5614610a8d578063a180f61b14610ac857610181565b806321d4f8db1161013e57806354b7c39b1161011857806354b7c39b146106b757806360c5cc3a1461070e57806363e84648146107495780637621710c146107f857610181565b806321d4f8db146104b8578063277411d21461052157806332c9b1831461066057610181565b806304dbe56314610186578063052065df1461026c5780630b278f72146103715780631594a313146103c05780631760705f1461042f5780631801f00f14610480575b600080fd5b34801561019257600080fd5b5061026a600480360360808110156101a957600080fd5b810190808035906020019092919080359060200190929190803590602001906401000000008111156101da57600080fd5b8201836020820111156101ec57600080fd5b8035906020019184600183028401116401000000008311171561020e57600080fd5b91908080601f016020809104026020016040519081016040528093929190818152602001838380828437600081840152601f19601f82011690508083019250505050505050919291929080359060200190929190505050610ef9565b005b34801561027857600080fd5b506102c56004803603604081101561028f57600080fd5b81019080803573ffffffffffffffffffffffffffffffffffffffff169060200190929190803590602001909291905050506111d2565b604051808760038111156102d557fe5b60ff16815260200186815260200185815260200184815260200183815260200180602001828103825283818151815260200191508051906020019080838360005b83811015610331578082015181840152602081019050610316565b50505050905090810190601f16801561035e5780820380516001836020036101000a031916815260200191505b5097505050505050505060405180910390f35b34801561037d57600080fd5b506103aa6004803603602081101561039457600080fd5b810190808035906020019092919050505061137c565b6040518082815260200191505060405180910390f35b3480156103cc57600080fd5b50610419600480360360408110156103e357600080fd5b81019080803573ffffffffffffffffffffffffffffffffffffffff16906020019092919080359060200190929190505050611536565b6040518082815260200191505060405180910390f35b34801561043b57600080fd5b5061047e6004803603602081101561045257600080fd5b81019080803573ffffffffffffffffffffffffffffffffffffffff169060200190929190505050611564565b005b6104b66004803603604081101561049657600080fd5b810190808035906020019092919080359060200190929190505050611601565b005b3480156104c457600080fd5b50610507600480360360208110156104db57600080fd5b81019080803573ffffffffffffffffffffffffffffffffffffffff1690602001909291905050506118ce565b604051808215151515815260200191505060405180910390f35b34801561052d57600080fd5b5061057a6004803603604081101561054457600080fd5b81019080803573ffffffffffffffffffffffffffffffffffffffff16906020019092919080359060200190929190505050611a5b565b604051808973ffffffffffffffffffffffffffffffffffffffff1673ffffffffffffffffffffffffffffffffffffffff1681526020018881526020018760028111156105c257fe5b60ff16815260200186815260200185815260200184815260200183815260200180602001828103825283818151815260200191508051906020019080838360005b8381101561061e578082015181840152602081019050610603565b50505050905090810190601f16801561064b5780820380516001836020036101000a031916815260200191505b50995050505050505050505060405180910390f35b34801561066c57600080fd5b50610675611c46565b604051808273ffffffffffffffffffffffffffffffffffffffff1673ffffffffffffffffffffffffffffffffffffffff16815260200191505060405180910390f35b3480156106c357600080fd5b506106cc611c70565b604051808273ffffffffffffffffffffffffffffffffffffffff1673ffffffffffffffffffffffffffffffffffffffff16815260200191505060405180910390f35b34801561071a57600080fd5b506107476004803603602081101561073157600080fd5b8101908080359060200190929190505050611c96565b005b34801561075557600080fd5b5061078c6004803603604081101561076c57600080fd5b810190808035906020019092919080359060200190929190505050611df1565b6040518086600281111561079c57fe5b60ff1681526020018581526020018481526020018381526020018273ffffffffffffffffffffffffffffffffffffffff1673ffffffffffffffffffffffffffffffffffffffff1681526020019550505050505060405180910390f35b34801561080457600080fd5b506108316004803603602081101561081b57600080fd5b8101908080359060200190929190505050611ecf565b604051808973ffffffffffffffffffffffffffffffffffffffff1673ffffffffffffffffffffffffffffffffffffffff16815260200188600381111561087357fe5b60ff16815260200187815260200186815260200185815260200184815260200183815260200180602001828103825283818151815260200191508051906020019080838360005b838110156108d55780820151818401526020810190506108ba565b50505050905090810190601f1680156109025780820380516001836020036101000a031916815260200191505b50995050505050505050505060405180910390f35b34801561092357600080fd5b506109666004803603602081101561093a57600080fd5b81019080803573ffffffffffffffffffffffffffffffffffffffff169060200190929190505050611fe9565b6040518086600381111561097657fe5b60ff1681526020018581526020018481526020018381526020018281526020019550505050505060405180910390f35b3480156109b257600080fd5b506109bb6120e8565b6040518082815260200191505060405180910390f35b3480156109dd57600080fd5b506109e66120f5565b604051808273ffffffffffffffffffffffffffffffffffffffff1673ffffffffffffffffffffffffffffffffffffffff16815260200191505060405180910390f35b348015610a3457600080fd5b50610a7760048036036020811015610a4b57600080fd5b81019080803573ffffffffffffffffffffffffffffffffffffffff16906020019092919050505061211a565b6040518082815260200191505060405180910390f35b348015610a9957600080fd5b50610ac660048036036020811015610ab057600080fd5b810190808035906020019092919050505061223e565b005b348015610ad457600080fd5b50610b0160048036036020811015610aeb57600080fd5b81019080803590602001909291905050506129a1565b005b610b2f60048036036020811015610b1957600080fd5b8101908080359060200190929190505050612c40565b005b348015610b3d57600080fd5b50610b8060048036036020811015610b5457600080fd5b81019080803573ffffffffffffffffffffffffffffffffffffffff16906020019092919050505061332f565b6040518082815260200191505060405180910390f35b348015610ba257600080fd5b50610be560048036036020811015610bb957600080fd5b81019080803573ffffffffffffffffffffffffffffffffffffffff16906020019092919050505061337b565b60405180826003811115610bf557fe5b60ff16815260200191505060405180910390f35b348015610c1557600080fd5b50610d6660048036036040811015610c2c57600080fd5b8101908080359060200190640100000000811115610c4957600080fd5b820183602082011115610c5b57600080fd5b80359060200191846001830284011164010000000083111715610c7d57600080fd5b91908080601f016020809104026020016040519081016040528093929190818152602001838380828437600081840152601f19601f82011690508083019250505050505050919291929080359060200190640100000000811115610ce057600080fd5b820183602082011115610cf257600080fd5b80359060200191846001830284011164010000000083111715610d1457600080fd5b91908080601f016020809104026020016040519081016040528093929190818152602001838380828437600081840152601f19601f820116905080830192505050505050509192919290505050613462565b604051808215151515815260200191505060405180910390f35b348015610d8c57600080fd5b50610db960048036036020811015610da357600080fd5b8101908080359060200190929190505050613551565b604051808673ffffffffffffffffffffffffffffffffffffffff1673ffffffffffffffffffffffffffffffffffffffff168152602001858152602001846002811115610e0157fe5b60ff1681526020018381526020018281526020019550505050505060405180910390f35b348015610e3157600080fd5b50610e7460048036036020811015610e4857600080fd5b81019080803573ffffffffffffffffffffffffffffffffffffffff1690602001909291905050506135c1565b6040518082815260200191505060405180910390f35b348015610e9657600080fd5b50610ee360048036036040811015610ead57600080fd5b81019080803573ffffffffffffffffffffffffffffffffffffffff1690602001909291908035906020019092919050505061360d565b6040518082815260200191505060405180910390f35b610f02336118ce565b15610f0c576111cc565b6000339050600160009054906101000a900473ffffffffffffffffffffffffffffffffffffffff1673ffffffffffffffffffffffffffffffffffffffff166342842e0e8230856040518463ffffffff1660e01b8152600401808473ffffffffffffffffffffffffffffffffffffffff1673ffffffffffffffffffffffffffffffffffffffff1681526020018373ffffffffffffffffffffffffffffffffffffffff1673ffffffffffffffffffffffffffffffffffffffff1681526020018281526020019350505050600060405180830381600087803b158015610fee57600080fd5b505af1158015611002573d6000803e3d6000fd5b50505050600042905060026040518061010001604052803373ffffffffffffffffffffffffffffffffffffffff1681526020016000600381111561104257fe5b81526020018781526020018881526020016000815260200160008152602001838152602001868152509080600181540180825580915050906001820390600052602060002090600802016000909192909190915060008201518160000160006101000a81548173ffffffffffffffffffffffffffffffffffffffff021916908373ffffffffffffffffffffffffffffffffffffffff16021790555060208201518160000160146101000a81548160ff0219169083600381111561110157fe5b021790555060408201518160010155606082015181600201556080820151816003015560a0820151816004015560c0820151816005015560e082015181600601908051906020019061115492919061363b565b50505050600460003373ffffffffffffffffffffffffffffffffffffffff1673ffffffffffffffffffffffffffffffffffffffff168152602001908152602001600020600160028054905003908060018154018082558091505090600182039060005260206000200160009091929091909150555050505b50505050565b6000806000806000606060006002600460008b73ffffffffffffffffffffffffffffffffffffffff1673ffffffffffffffffffffffffffffffffffffffff168152602001908152602001600020898154811061122a57fe5b90600052602060002001548154811061123f57fe5b906000526020600020906008020190508060000160149054906101000a900460ff16816001015482600201548360040154600460008e73ffffffffffffffffffffffffffffffffffffffff1673ffffffffffffffffffffffffffffffffffffffff1681526020019081526020016000208c815481106112ba57fe5b906000526020600020015485600601808054600181600116156101000203166002900480601f01602080910402602001604051908101604052809291908181526020018280546001816001161561010002031660029004801561135e5780601f106113335761010080835404028352916020019161135e565b820191906000526020600020905b81548152906001019060200180831161134157829003601f168201915b50505050509050965096509650965096509650509295509295509295565b60006001600381111561138b57fe5b6002838154811061139857fe5b906000526020600020906008020160000160149054906101000a900460ff1660038111156113c257fe5b1415611525576000600283815481106113d757fe5b9060005260206000209060080201600501549050600080905060008090505b6002858154811061140357fe5b90600052602060002090600802016003015481101561151a5760006002868154811061142b57fe5b906000526020600020906008020160070160008381526020019081526020016000205490506001600281111561145d57fe5b6003828154811061146a57fe5b906000526020600020906005020160020160009054906101000a900460ff16600281111561149457fe5b141561150c576000600382815481106114a957fe5b90600052602060002090600502016004015490506000600383815481106114cc57fe5b90600052602060002090600502016003015490506000429050600063bbf81e0088830384860202816114fa57fe5b04905080870196508387019650505050505b5080806001019150506113f6565b508092505050611531565b67ffffffffffffffff90505b919050565b6004602052816000526040600020818154811061154f57fe5b90600052602060002001600091509150505481565b6000809054906101000a900473ffffffffffffffffffffffffffffffffffffffff1673ffffffffffffffffffffffffffffffffffffffff163373ffffffffffffffffffffffffffffffffffffffff16146115bd57600080fd5b80600160006101000a81548173ffffffffffffffffffffffffffffffffffffffff021916908373ffffffffffffffffffffffffffffffffffffffff16021790555050565b600073ffffffffffffffffffffffffffffffffffffffff166002838154811061162657fe5b906000526020600020906008020160000160009054906101000a900473ffffffffffffffffffffffffffffffffffffffff1673ffffffffffffffffffffffffffffffffffffffff1614806116bc57506000600381111561168257fe5b6002838154811061168f57fe5b906000526020600020906008020160000160149054906101000a900460ff1660038111156116b957fe5b14155b156116c6576118ca565b60036040518060a001604052803373ffffffffffffffffffffffffffffffffffffffff1681526020018481526020016000600281111561170257fe5b8152602001838152602001348152509080600181540180825580915050906001820390600052602060002090600502016000909192909190915060008201518160000160006101000a81548173ffffffffffffffffffffffffffffffffffffffff021916908373ffffffffffffffffffffffffffffffffffffffff1602179055506020820151816001015560408201518160020160006101000a81548160ff021916908360028111156117b157fe5b02179055506060820151816003015560808201518160040155505050600560003373ffffffffffffffffffffffffffffffffffffffff1673ffffffffffffffffffffffffffffffffffffffff16815260200190815260200160002060016003805490500390806001815401808255809150509060018203906000526020600020016000909192909190915055506002828154811061184b57fe5b9060005260206000209060080201600301600081548092919060010191905055506001600380549050036002838154811061188257fe5b906000526020600020906008020160070160006001600286815481106118a457fe5b906000526020600020906008020160030154038152602001908152602001600020819055505b5050565b600080600460008473ffffffffffffffffffffffffffffffffffffffff1673ffffffffffffffffffffffffffffffffffffffff1681526020019081526020016000208054905090506000811415611929576000915050611a56565b60006002600460008673ffffffffffffffffffffffffffffffffffffffff1673ffffffffffffffffffffffffffffffffffffffff168152602001908152602001600020600184038154811061197a57fe5b90600052602060002001548154811061198f57fe5b90600052602060002090600802019050600060038111156119ac57fe5b600260018403815481106119bc57fe5b906000526020600020906008020160000160149054906101000a900460ff1660038111156119e657fe5b14156119f757600192505050611a56565b60016003811115611a0457fe5b60026001840381548110611a1457fe5b906000526020600020906008020160000160149054906101000a900460ff166003811115611a3e57fe5b1415611a4f57600192505050611a56565b6000925050505b919050565b6000806000806000806000606060006003600560008d73ffffffffffffffffffffffffffffffffffffffff1673ffffffffffffffffffffffffffffffffffffffff1681526020019081526020016000208b81548110611ab657fe5b906000526020600020015481548110611acb57fe5b906000526020600020906005020190508060000160009054906101000a900473ffffffffffffffffffffffffffffffffffffffff1681600101548260020160009054906101000a900460ff16836003015484600401546002866001015481548110611b3257fe5b9060005260206000209060080201600201546002876001015481548110611b5557fe5b9060005260206000209060080201600101546002886001015481548110611b7857fe5b9060005260206000209060080201600601879750808054600181600116156101000203166002900480601f016020809104026020016040519081016040528092919081815260200182805460018160011615610100020316600290048015611c215780601f10611bf657610100808354040283529160200191611c21565b820191906000526020600020905b815481529060010190602001808311611c0457829003601f168201915b5050505050905098509850985098509850985098509850509295985092959890939650565b6000600160009054906101000a900473ffffffffffffffffffffffffffffffffffffffff16905090565b600160009054906101000a900473ffffffffffffffffffffffffffffffffffffffff1681565b6000611ca13361211a565b905067ffffffffffffffff811415611cb95750611dee565b600060038381548110611cc857fe5b9060005260206000209060050201905060006002811115611ce557fe5b8160020160009054906101000a900460ff166002811115611d0257fe5b14611d0e575050611dee565b600060028381548110611d1d57fe5b9060005260206000209060080201905060006003811115611d3a57fe5b8160000160149054906101000a900460ff166003811115611d5757fe5b14611d6457505050611dee565b8060020154826004015482600401540111611dea57816004015460028481548110611d8b57fe5b906000526020600020906008020160040160008282540192505081905550600160038581548110611db857fe5b906000526020600020906005020160020160006101000a81548160ff02191690836002811115611de457fe5b02179055505b5050505b50565b600080600080600080600360028981548110611e0957fe5b906000526020600020906008020160070160008981526020019081526020016000205481548110611e3657fe5b906000526020600020906005020190508060020160009054906101000a900460ff168160030154826004015460028b81548110611e6f57fe5b906000526020600020906008020160070160008b8152602001908152602001600020548460000160009054906101000a900473ffffffffffffffffffffffffffffffffffffffff1680905095509550955095509550509295509295909350565b60028181548110611edc57fe5b90600052602060002090600802016000915090508060000160009054906101000a900473ffffffffffffffffffffffffffffffffffffffff16908060000160149054906101000a900460ff1690806001015490806002015490806003015490806004015490806005015490806006018054600181600116156101000203166002900480601f016020809104026020016040519081016040528092919081815260200182805460018160011615610100020316600290048015611fdf5780601f10611fb457610100808354040283529160200191611fdf565b820191906000526020600020905b815481529060010190602001808311611fc257829003601f168201915b5050505050905088565b600080600080600080600460008873ffffffffffffffffffffffffffffffffffffffff1673ffffffffffffffffffffffffffffffffffffffff16815260200190815260200160002080549050905060006002600460008a73ffffffffffffffffffffffffffffffffffffffff1673ffffffffffffffffffffffffffffffffffffffff168152602001908152602001600020600184038154811061208857fe5b90600052602060002001548154811061209d57fe5b906000526020600020906008020190508060000160149054906101000a900460ff16816001015482600201548360030154846004015496509650965096509650505091939590929450565b6000600280549050905090565b6000809054906101000a900473ffffffffffffffffffffffffffffffffffffffff1681565b600080600460008473ffffffffffffffffffffffffffffffffffffffff1673ffffffffffffffffffffffffffffffffffffffff168152602001908152602001600020805490509050600081141561217c5767ffffffffffffffff915050612239565b6000600460008573ffffffffffffffffffffffffffffffffffffffff1673ffffffffffffffffffffffffffffffffffffffff16815260200190815260200160002060018303815481106121cb57fe5b90600052602060002001549050600060038111156121e557fe5b600282815481106121f257fe5b906000526020600020906008020160000160149054906101000a900460ff16600381111561221c57fe5b146122335767ffffffffffffffff92505050612239565b80925050505b919050565b6000600560003373ffffffffffffffffffffffffffffffffffffffff1673ffffffffffffffffffffffffffffffffffffffff168152602001908152602001600020828154811061228a57fe5b90600052602060002001549050600060028111156122a457fe5b600382815481106122b157fe5b906000526020600020906005020160020160009054906101000a900460ff1660028111156122db57fe5b146122e6575061299e565b6000600382815481106122f557fe5b90600052602060002090600502016001015490506000600381111561231657fe5b6002828154811061232357fe5b906000526020600020906008020160000160149054906101000a900460ff16600381111561234d57fe5b14156123fd5760026003838154811061236257fe5b906000526020600020906005020160020160006101000a81548160ff0219169083600281111561238e57fe5b02179055503373ffffffffffffffffffffffffffffffffffffffff166108fc600384815481106123ba57fe5b9060005260206000209060050201600401549081150290604051600060405180830381858888f193505050501580156123f7573d6000803e3d6000fd5b5061299b565b6001600381111561240a57fe5b6002828154811061241757fe5b906000526020600020906008020160000160149054906101000a900460ff16600381111561244157fe5b141561299a57426002828154811061245557fe5b906000526020600020906008020160010154101561247457505061299e565b60036002828154811061248357fe5b906000526020600020906008020160000160146101000a81548160ff021916908360038111156124af57fe5b021790555060008090505b600282815481106124c757fe5b906000526020600020906008020160030154811015612998576000600283815481106124ef57fe5b906000526020600020906008020160070160008381526020019081526020016000205490506001600281111561252157fe5b6003828154811061252e57fe5b906000526020600020906005020160020160009054906101000a900460ff16600281111561255857fe5b141561298a576000600160009054906101000a900473ffffffffffffffffffffffffffffffffffffffff1673ffffffffffffffffffffffffffffffffffffffff166318160ddd6040518163ffffffff1660e01b815260040160206040518083038186803b1580156125c857600080fd5b505afa1580156125dc573d6000803e3d6000fd5b505050506040513d60208110156125f257600080fd5b8101908080519060200190929190505050905060606002858154811061261457fe5b90600052602060002090600802016006018054600181600116156101000203166002900480601f0160208091040260200160405190810160405280929190818152602001828054600181600116156101000203166002900480156126b95780601f1061268e576101008083540402835291602001916126b9565b820191906000526020600020905b81548152906001019060200180831161269c57829003601f168201915b5050505050905060007fffffffffffffffffffffffffffffffffffffffffffffffffffffffffffffffff905060008090505b83811015612890576060600160009054906101000a900473ffffffffffffffffffffffffffffffffffffffff1673ffffffffffffffffffffffffffffffffffffffff1663cf35bdd0836040518263ffffffff1660e01b81526004018082815260200191505060006040518083038186803b15801561276857600080fd5b505afa15801561277c573d6000803e3d6000fd5b505050506040513d6000823e3d601f19601f8201168201806040525060208110156127a657600080fd5b81019080805160405193929190846401000000008211156127c657600080fd5b838201915060208201858111156127dc57600080fd5b82518660018202830111640100000000821117156127f957600080fd5b8083526020830192505050908051906020019080838360005b8381101561282d578082015181840152602081019050612812565b50505050905090810190601f16801561285a5780820380516001836020036101000a031916815260200191505b506040525050509050600115156128718286613462565b151514156128825781925050612890565b5080806001019150506126eb565b50600160009054906101000a900473ffffffffffffffffffffffffffffffffffffffff1673ffffffffffffffffffffffffffffffffffffffff166342842e0e3033846040518463ffffffff1660e01b8152600401808473ffffffffffffffffffffffffffffffffffffffff1673ffffffffffffffffffffffffffffffffffffffff1681526020018373ffffffffffffffffffffffffffffffffffffffff1673ffffffffffffffffffffffffffffffffffffffff1681526020018281526020019350505050600060405180830381600087803b15801561296e57600080fd5b505af1158015612982573d6000803e3d6000fd5b505050505050505b5080806001019150506124ba565b505b5b50505b50565b600060038111156129ae57fe5b600282815481106129bb57fe5b906000526020600020906008020160000160149054906101000a900460ff1660038111156129e557fe5b1415612c37576001600282815481106129fa57fe5b906000526020600020906008020160000160146101000a81548160ff02191690836003811115612a2657fe5b021790555060008090505b60028281548110612a3e57fe5b906000526020600020906008020160030154811015612c3157600060028381548110612a6657fe5b9060005260206000209060080201600701600083815260200190815260200160002054905060016002811115612a9857fe5b60038281548110612aa557fe5b906000526020600020906005020160020160009054906101000a900460ff166002811115612acf57fe5b1415612b3f573373ffffffffffffffffffffffffffffffffffffffff166108fc60038381548110612afc57fe5b9060005260206000209060050201600401549081150290604051600060405180830381858888f19350505050158015612b39573d6000803e3d6000fd5b50612c23565b600260038281548110612b4e57fe5b906000526020600020906005020160020160006101000a81548160ff02191690836002811115612b7a57fe5b021790555060038181548110612b8c57fe5b906000526020600020906005020160000160009054906101000a900473ffffffffffffffffffffffffffffffffffffffff1673ffffffffffffffffffffffffffffffffffffffff166108fc60038381548110612be457fe5b9060005260206000209060050201600401549081150290604051600060405180830381858888f19350505050158015612c21573d6000803e3d6000fd5b505b508080600101915050612a31565b50612c3c565b612c3d565b5b50565b60004290506000612c508361137c565b9050600060028481548110612c6157fe5b9060005260206000209060080201600501549050600034905082811015612c8757600080fd5b600083820390506002808781548110612c9c57fe5b906000526020600020906008020160000160146101000a81548160ff02191690836003811115612cc857fe5b021790555060008090505b60028781548110612ce057fe5b906000526020600020906008020160030154811015612eb457600060028881548110612d0857fe5b9060005260206000209060080201600701600083815260200190815260200160002054905060016002811115612d3a57fe5b60038281548110612d4757fe5b906000526020600020906005020160020160009054906101000a900460ff166002811115612d7157fe5b1415612ea657600060038281548110612d8657fe5b9060005260206000209060050201600401549050600060038381548110612da957fe5b9060005260206000209060050201600301549050600063bbf81e00888b038385020281612dd257fe5b0490506000838201905060038581548110612de957fe5b906000526020600020906005020160000160009054906101000a900473ffffffffffffffffffffffffffffffffffffffff1673ffffffffffffffffffffffffffffffffffffffff166108fc829081150290604051600060405180830381858888f19350505050158015612e60573d6000803e3d6000fd5b50600260038681548110612e7057fe5b906000526020600020906005020160020160006101000a81548160ff02191690836002811115612e9c57fe5b0217905550505050505b508080600101915050612cd3565b503373ffffffffffffffffffffffffffffffffffffffff166108fc829081150290604051600060405180830381858888f19350505050158015612efb573d6000803e3d6000fd5b506000600160009054906101000a900473ffffffffffffffffffffffffffffffffffffffff1673ffffffffffffffffffffffffffffffffffffffff166318160ddd6040518163ffffffff1660e01b815260040160206040518083038186803b158015612f6657600080fd5b505afa158015612f7a573d6000803e3d6000fd5b505050506040513d6020811015612f9057600080fd5b81019080805190602001909291905050509050606060028881548110612fb257fe5b90600052602060002090600802016006018054600181600116156101000203166002900480601f0160208091040260200160405190810160405280929190818152602001828054600181600116156101000203166002900480156130575780601f1061302c57610100808354040283529160200191613057565b820191906000526020600020905b81548152906001019060200180831161303a57829003601f168201915b5050505050905060007fffffffffffffffffffffffffffffffffffffffffffffffffffffffffffffffff905060008090505b8381101561322e576060600160009054906101000a900473ffffffffffffffffffffffffffffffffffffffff1673ffffffffffffffffffffffffffffffffffffffff1663cf35bdd0836040518263ffffffff1660e01b81526004018082815260200191505060006040518083038186803b15801561310657600080fd5b505afa15801561311a573d6000803e3d6000fd5b505050506040513d6000823e3d601f19601f82011682018060405250602081101561314457600080fd5b810190808051604051939291908464010000000082111561316457600080fd5b8382019150602082018581111561317a57600080fd5b825186600182028301116401000000008211171561319757600080fd5b8083526020830192505050908051906020019080838360005b838110156131cb5780820151818401526020810190506131b0565b50505050905090810190601f1680156131f85780820380516001836020036101000a031916815260200191505b5060405250505090506001151561320f8286613462565b15151415613220578192505061322e565b508080600101915050613089565b50600160009054906101000a900473ffffffffffffffffffffffffffffffffffffffff1673ffffffffffffffffffffffffffffffffffffffff166342842e0e3033846040518463ffffffff1660e01b8152600401808473ffffffffffffffffffffffffffffffffffffffff1673ffffffffffffffffffffffffffffffffffffffff1681526020018373ffffffffffffffffffffffffffffffffffffffff1673ffffffffffffffffffffffffffffffffffffffff1681526020018281526020019350505050600060405180830381600087803b15801561330c57600080fd5b505af1158015613320573d6000803e3d6000fd5b50505050505050505050505050565b6000600560008373ffffffffffffffffffffffffffffffffffffffff1673ffffffffffffffffffffffffffffffffffffffff168152602001908152602001600020805490509050919050565b600080600460008473ffffffffffffffffffffffffffffffffffffffff1673ffffffffffffffffffffffffffffffffffffffff16815260200190815260200160002080549050905060008114156133d657600291505061345d565b6002600460008573ffffffffffffffffffffffffffffffffffffffff1673ffffffffffffffffffffffffffffffffffffffff168152602001908152602001600020600183038154811061342557fe5b90600052602060002001548154811061343a57fe5b906000526020600020906008020160000160149054906101000a900460ff169150505b919050565b6000816040516020018082805190602001908083835b6020831061349b5780518252602082019150602081019050602083039250613478565b6001836020036101000a03801982511681845116808217855250505050505090500191505060405160208183030381529060405280519060200120836040516020018082805190602001908083835b6020831061350d57805182526020820191506020810190506020830392506134ea565b6001836020036101000a0380198251168184511680821785525050505050509050019150506040516020818303038152906040528051906020012014905092915050565b6003818154811061355e57fe5b90600052602060002090600502016000915090508060000160009054906101000a900473ffffffffffffffffffffffffffffffffffffffff16908060010154908060020160009054906101000a900460ff16908060030154908060040154905085565b6000600460008373ffffffffffffffffffffffffffffffffffffffff1673ffffffffffffffffffffffffffffffffffffffff168152602001908152602001600020805490509050919050565b6005602052816000526040600020818154811061362657fe5b90600052602060002001600091509150505481565b828054600181600116156101000203166002900490600052602060002090601f016020900481019282601f1061367c57805160ff19168380011785556136aa565b828001600101855582156136aa579182015b828111156136a957825182559160200191906001019061368e565b5b5090506136b791906136bb565b5090565b6136dd91905b808211156136d95760008160009055506001016136c1565b5090565b9056fea265627a7a723158207069a67597d988bc556bf0cfb088371de21ba174986b92d9ed372501d7efb40564736f6c63430005100032",
  "source": "pragma solidity ^0.5.0;\r\n\r\nimport './Asset.sol';\r\n\r\ncontract Bank {\r\n    \r\n    address public owner;\r\n    \r\n    address public ac;\r\n\r\n    enum ProposalState {\r\n        WAITING,\r\n        ACCEPTED,\r\n        REPAID\r\n    }\r\n\r\n    struct Proposal {\r\n        address payable lender;\r\n        uint loanId;\r\n        ProposalState state;\r\n        uint rate;\r\n        uint amount;\r\n    }\r\n    \r\n    enum LoanState {\r\n        ACCEPTING,\r\n        LOCKED,\r\n        SUCCESSFUL,\r\n        FAILED\r\n    }\r\n    \r\n    struct Loan {\r\n        address borrower;\r\n        LoanState state;\r\n        uint dueDate;\r\n        uint amount;\r\n        uint proposalCount;\r\n        uint collected;\r\n        uint startDate;\r\n        string mortgage;\r\n        mapping (uint=>uint) proposal;\r\n    }\r\n\r\n    Loan[] public loanList;\r\n    Proposal[] public proposalList;\r\n\r\n    mapping (address=>uint[]) public loanMap;\r\n    mapping (address=>uint[]) public lendMap;\r\n\r\n    constructor() public{\r\n        owner = msg.sender;\r\n    }\r\n\r\n    function setAssetContract(address _t) public {\r\n      require(msg.sender == owner);\r\n      ac = _t;\r\n    }\r\n\r\n    function getAssetContractAddress() public view returns(address) {\r\n      return ac;\r\n    }\r\n\r\n     function hasActiveLoan(address borrower) public view returns(bool) {\r\n        uint validLoans = loanMap[borrower].length;\r\n        if(validLoans == 0) return false;\r\n        Loan storage obj = loanList[loanMap[borrower][validLoans-1]];\r\n        if(loanList[validLoans-1].state == LoanState.ACCEPTING) return true;\r\n        if(loanList[validLoans-1].state == LoanState.LOCKED) return true;\r\n        return false;\r\n    }\r\n\r\n    event Debug(address indexed my_val);\r\n\r\n     function newLoan(uint amount, uint dueDate, string memory mortgage, uint256 _tokenId) public {\r\n        if(hasActiveLoan(msg.sender)) return;\r\n        // transfer token to this contract\r\n        // require(ac.getApproved(_tokenId) == msg.sender);\r\n        // (bool success, bytes memory result) = _assetContractAddress.delegatecall(abi.encodeWithSignature(\"safeTransferFrom(address,address,uint256)\", msg.sender, address(this), _tokenId));\r\n        address fromAdd = msg.sender;\r\n        // emit Debug(msg.sender);\r\n        Asset(ac).safeTransferFrom(fromAdd, address(this), _tokenId);\r\n        // require(success == true);\r\n\r\n        uint currentDate = block.timestamp;\r\n        loanList.push(Loan(msg.sender, LoanState.ACCEPTING, dueDate, amount, 0, 0, currentDate, mortgage));\r\n        loanMap[msg.sender].push(loanList.length-1);\r\n    }\r\n\r\n     function newProposal(uint loanId, uint rate) public payable {\r\n        if(loanList[loanId].borrower == address(0) || loanList[loanId].state != LoanState.ACCEPTING)\r\n            return;\r\n        proposalList.push(Proposal(msg.sender, loanId, ProposalState.WAITING, rate, msg.value));\r\n        lendMap[msg.sender].push(proposalList.length-1);\r\n        loanList[loanId].proposalCount++;\r\n        loanList[loanId].proposal[loanList[loanId].proposalCount-1] = proposalList.length-1;\r\n    }\r\n\r\n     function getActiveLoanId(address borrower) public view returns(uint) {\r\n        uint numLoans = loanMap[borrower].length;\r\n        if(numLoans == 0) return (2**64 - 1);\r\n        uint lastLoanId = loanMap[borrower][numLoans-1];\r\n        if(loanList[lastLoanId].state != LoanState.ACCEPTING) return (2**64 - 1);\r\n        return lastLoanId;\r\n    }\r\n\r\n    function compareStrings(string memory a, string memory b) public view returns (bool) {\r\n        return (keccak256(abi.encodePacked((a))) == keccak256(abi.encodePacked((b))));\r\n    }\r\n\r\n     function revokeMyProposal(uint id) public {\r\n        uint proposeId = lendMap[msg.sender][id];\r\n        if(proposalList[proposeId].state != ProposalState.WAITING) return;\r\n        uint loanId = proposalList[proposeId].loanId;\r\n        if(loanList[loanId].state == LoanState.ACCEPTING) {\r\n            // Lender wishes to revoke his ETH when proposal is still WAITING\r\n            proposalList[proposeId].state = ProposalState.REPAID;\r\n            msg.sender.transfer(proposalList[proposeId].amount);\r\n        }\r\n        else if(loanList[loanId].state == LoanState.LOCKED) {\r\n            // The loan is locked/accepting and the due date passed : transfer the mortgage\r\n            if(loanList[loanId].dueDate < now) return;\r\n            loanList[loanId].state = LoanState.FAILED;\r\n            for(uint i = 0; i < loanList[loanId].proposalCount; i++) {\r\n                uint numI = loanList[loanId].proposal[i];\r\n                if(proposalList[numI].state == ProposalState.ACCEPTED) {\r\n                    // transfer mortgage\r\n                    uint256 supply = Asset(ac).totalSupply();\r\n                    string memory mort = loanList[loanId].mortgage;\r\n                    uint256 tokenId = uint256(-1);\r\n                    for(uint256 i=0;i<supply;i++){\r\n                      string memory asset = Asset(ac).assets(i);\r\n                      if(compareStrings(asset, mort) == true){\r\n                        tokenId = i;\r\n                        break;\r\n                      }\r\n                    }\r\n                    Asset(ac).safeTransferFrom(address(this), msg.sender, tokenId);\r\n                }\r\n            } \r\n        }\r\n    }\r\n\r\n     function lockLoan(uint loanId) public {\r\n        //contract will send money to msg.sender\r\n        //states of proposals would be finalized, not accepted proposals would be reimbursed\r\n        if(loanList[loanId].state == LoanState.ACCEPTING)\r\n        {\r\n          loanList[loanId].state = LoanState.LOCKED;\r\n          for(uint i = 0; i < loanList[loanId].proposalCount; i++)\r\n          {\r\n            uint numI = loanList[loanId].proposal[i];\r\n            if(proposalList[numI].state == ProposalState.ACCEPTED)\r\n            {\r\n              msg.sender.transfer(proposalList[numI].amount); //Send to borrower\r\n            }\r\n            else\r\n            {\r\n              proposalList[numI].state = ProposalState.REPAID;\r\n              proposalList[numI].lender.transfer(proposalList[numI].amount); //Send back to lender\r\n            }\r\n          }\r\n        }\r\n        else\r\n          return;\r\n    }\r\n    \r\n    //Amount to be Repaid\r\n     function getRepayValue(uint loanId) public view returns(uint) {\r\n        if(loanList[loanId].state == LoanState.LOCKED)\r\n        {\r\n          uint time = loanList[loanId].startDate;\r\n          uint finalamount = 0;\r\n          for(uint i = 0; i < loanList[loanId].proposalCount; i++)\r\n          {\r\n            uint numI = loanList[loanId].proposal[i];\r\n            if(proposalList[numI].state == ProposalState.ACCEPTED)\r\n            {\r\n              uint original = proposalList[numI].amount;\r\n              uint rate = proposalList[numI].rate;\r\n              uint now = block.timestamp;\r\n              uint interest = (original*rate*(now - time))/(365*24*60*60*100);\r\n              finalamount += interest;\r\n              finalamount += original;\r\n            }\r\n          }\r\n          return finalamount;\r\n        }\r\n        else\r\n          return (2**64 -1);\r\n    }\r\n\r\n     function repayLoan(uint loanId) public payable {\r\n      uint now = block.timestamp;\r\n      uint toBePaid = getRepayValue(loanId);\r\n      uint time = loanList[loanId].startDate;\r\n      uint paid = msg.value;\r\n      require(paid >= toBePaid);\r\n      // if(paid >= toBePaid)\r\n      // {\r\n      uint remain = paid - toBePaid;\r\n      loanList[loanId].state = LoanState.SUCCESSFUL;\r\n      for(uint i = 0; i < loanList[loanId].proposalCount; i++)\r\n      {\r\n        uint numI = loanList[loanId].proposal[i];\r\n        if(proposalList[numI].state == ProposalState.ACCEPTED)\r\n        {\r\n          uint original = proposalList[numI].amount;\r\n          uint rate = proposalList[numI].rate;\r\n          uint interest = (original*rate*(now - time))/(365*24*60*60*100);\r\n          uint finalamount = interest + original;\r\n          proposalList[numI].lender.transfer(finalamount);\r\n          proposalList[numI].state = ProposalState.REPAID;\r\n        }\r\n      }\r\n      msg.sender.transfer(remain);\r\n      // mortgage transfer\r\n      uint256 supply = Asset(ac).totalSupply();\r\n      string memory mort = loanList[loanId].mortgage;\r\n      uint256 tokenId = uint256(-1);\r\n      for(uint256 i=0;i<supply;i++){\r\n        string memory asset = Asset(ac).assets(i);\r\n        if(compareStrings(asset, mort) == true){\r\n          tokenId = i;\r\n          break;\r\n        }\r\n      }\r\n      Asset(ac).safeTransferFrom(address(this), msg.sender, tokenId);\r\n      // }\r\n      // else\r\n      // {\r\n      //   msg.sender.transfer(paid);\r\n      // }\r\n    }\r\n\r\n     function acceptProposal(uint proposeId) public\r\n    {\r\n        uint loanId = getActiveLoanId(msg.sender); \r\n        if(loanId == (2**64 - 1)) return;\r\n        Proposal storage pObj = proposalList[proposeId];\r\n        if(pObj.state != ProposalState.WAITING) return;\r\n\r\n        Loan storage lObj = loanList[loanId];\r\n        if(lObj.state != LoanState.ACCEPTING) return;\r\n\r\n        if(lObj.collected + pObj.amount <= lObj.amount)\r\n        {\r\n          loanList[loanId].collected += pObj.amount;\r\n          proposalList[proposeId].state = ProposalState.ACCEPTED;\r\n        }\r\n    }\r\n\r\n     function totalProposalsBy(address lender) public view returns(uint) {\r\n        return lendMap[lender].length;\r\n    }\r\n\r\n     function getProposalAtPosFor(address lender, uint pos) public view returns(address, uint, ProposalState, uint, uint, uint, uint, string memory) {\r\n        Proposal storage prop = proposalList[lendMap[lender][pos]];\r\n        return (prop.lender, prop.loanId, prop.state, prop.rate, prop.amount, loanList[prop.loanId].amount, loanList[prop.loanId].dueDate, loanList[prop.loanId].mortgage);\r\n    }\r\n\r\n// BORROWER ACTIONS AVAILABLE    \r\n\r\n     function totalLoansBy(address borrower) public view returns(uint) {\r\n        return loanMap[borrower].length;\r\n    }\r\n\r\n     function getLoanDetailsByAddressPosition(address borrower, uint pos) public view returns(LoanState, uint, uint, uint, uint,string memory) {\r\n        Loan storage obj = loanList[loanMap[borrower][pos]];\r\n        return (obj.state, obj.dueDate, obj.amount, obj.collected, loanMap[borrower][pos], obj.mortgage);\r\n    }\r\n\r\n     function getLastLoanState(address borrower) public view returns(LoanState) {\r\n        uint loanLength = loanMap[borrower].length;\r\n        if(loanLength == 0)\r\n            return LoanState.SUCCESSFUL;\r\n        return loanList[loanMap[borrower][loanLength -1]].state;\r\n    }\r\n\r\n     function getLastLoanDetails(address borrower) public view returns(LoanState, uint, uint, uint, uint) {\r\n        uint loanLength = loanMap[borrower].length;\r\n        Loan storage obj = loanList[loanMap[borrower][loanLength -1]];\r\n        return (obj.state, obj.dueDate, obj.amount, obj.proposalCount, obj.collected);\r\n    }\r\n\r\n     function getProposalDetailsByLoanIdPosition(uint loanId, uint numI) public view returns(ProposalState, uint, uint, uint, address) {\r\n        Proposal storage obj = proposalList[loanList[loanId].proposal[numI]];\r\n        return (obj.state, obj.rate, obj.amount, loanList[loanId].proposal[numI],obj.lender);\r\n    }\r\n\r\n     function numTotalLoans() public view returns(uint) {\r\n        return loanList.length;\r\n    }\r\n    \r\n}\r\n",
  "sourcePath": "D:\\Practice Projects\\react-web3\\contracts\\Bank.sol",
  "compiler": {
    "name": "solc",
    "version": "0.5.16+commit.9c3226ce.Emscripten.clang"
  },
  "schemaVersion": "3.4.3",
  "updatedAt": "2021-12-18T04:12:13.568Z",
  "networkType": "ethereum",
  "devdoc": {
    "methods": {}
  },
  "userdoc": {
    "methods": {}
  }
}